{
  "contractName": "RentalDeposit",
  "abi": [
    {
      "inputs": [
        {
          "internalType": "address",
          "name": "_tenant",
          "type": "address"
        },
        {
          "internalType": "uint256",
          "name": "_depositAmount",
          "type": "uint256"
        }
      ],
      "stateMutability": "nonpayable",
      "type": "constructor"
    },
    {
      "anonymous": false,
      "inputs": [
        {
          "indexed": true,
          "internalType": "address",
          "name": "tenant",
          "type": "address"
        }
      ],
      "name": "ContractSigned",
      "type": "event"
    },
    {
      "anonymous": false,
      "inputs": [
        {
          "indexed": true,
          "internalType": "address",
          "name": "payer",
          "type": "address"
        },
        {
          "indexed": false,
          "internalType": "uint256",
          "name": "amount",
          "type": "uint256"
        }
      ],
      "name": "DepositPaid",
      "type": "event"
    },
    {
      "anonymous": false,
      "inputs": [
        {
          "indexed": true,
          "internalType": "address",
          "name": "tenant",
          "type": "address"
        },
        {
          "indexed": true,
          "internalType": "address",
          "name": "landlord",
          "type": "address"
        },
        {
          "indexed": false,
          "internalType": "uint256",
          "name": "tenantShare",
          "type": "uint256"
        },
        {
          "indexed": false,
          "internalType": "uint256",
          "name": "landlordShare",
          "type": "uint256"
        }
      ],
      "name": "DepositRefunded",
      "type": "event"
    },
    {
      "inputs": [],
      "name": "depositAmount",
      "outputs": [
        {
          "internalType": "uint256",
          "name": "",
          "type": "uint256"
        }
      ],
      "stateMutability": "view",
      "type": "function"
    },
    {
      "inputs": [],
      "name": "isDepositPaid",
      "outputs": [
        {
          "internalType": "bool",
          "name": "",
          "type": "bool"
        }
      ],
      "stateMutability": "view",
      "type": "function"
    },
    {
      "inputs": [],
      "name": "isRefundRecorded",
      "outputs": [
        {
          "internalType": "bool",
          "name": "",
          "type": "bool"
        }
      ],
      "stateMutability": "view",
      "type": "function"
    },
    {
      "inputs": [],
      "name": "isRefunded",
      "outputs": [
        {
          "internalType": "bool",
          "name": "",
          "type": "bool"
        }
      ],
      "stateMutability": "view",
      "type": "function"
    },
    {
      "inputs": [],
      "name": "isSignedByTenant",
      "outputs": [
        {
          "internalType": "bool",
          "name": "",
          "type": "bool"
        }
      ],
      "stateMutability": "view",
      "type": "function"
    },
    {
      "inputs": [],
      "name": "landlord",
      "outputs": [
        {
          "internalType": "address",
          "name": "",
          "type": "address"
        }
      ],
      "stateMutability": "view",
      "type": "function"
    },
    {
      "inputs": [],
      "name": "landlordShare",
      "outputs": [
        {
          "internalType": "uint256",
          "name": "",
          "type": "uint256"
        }
      ],
      "stateMutability": "view",
      "type": "function"
    },
    {
      "inputs": [],
      "name": "tenant",
      "outputs": [
        {
          "internalType": "address",
          "name": "",
          "type": "address"
        }
      ],
      "stateMutability": "view",
      "type": "function"
    },
    {
      "inputs": [],
      "name": "tenantShare",
      "outputs": [
        {
          "internalType": "uint256",
          "name": "",
          "type": "uint256"
        }
      ],
      "stateMutability": "view",
      "type": "function"
    },
    {
      "stateMutability": "payable",
      "type": "receive"
    },
    {
      "inputs": [],
      "name": "payDeposit",
      "outputs": [],
      "stateMutability": "payable",
      "type": "function"
    },
    {
      "inputs": [
        {
          "internalType": "uint256",
          "name": "_tenantShare",
          "type": "uint256"
        },
        {
          "internalType": "uint256",
          "name": "_landlordShare",
          "type": "uint256"
        }
      ],
      "name": "refundDeposit",
      "outputs": [],
      "stateMutability": "nonpayable",
      "type": "function"
    },
    {
      "inputs": [],
      "name": "signContract",
      "outputs": [],
      "stateMutability": "nonpayable",
      "type": "function"
    },
    {
      "inputs": [],
      "name": "getDepositShares",
      "outputs": [
        {
          "internalType": "uint256",
          "name": "_tenantShare",
          "type": "uint256"
        },
        {
          "internalType": "uint256",
          "name": "_landlordShare",
          "type": "uint256"
        }
      ],
      "stateMutability": "view",
      "type": "function"
    }
  ],
  "bytecode": "0x608060405234801562000010575f80fd5b5060405162001466380380620014668339818101604052810190620000369190620001a6565b335f806101000a81548173ffffffffffffffffffffffffffffffffffffffff021916908373ffffffffffffffffffffffffffffffffffffffff1602179055508160015f6101000a81548173ffffffffffffffffffffffffffffffffffffffff021916908373ffffffffffffffffffffffffffffffffffffffff1602179055505f8111620000fa576040517f08c379a0000000000000000000000000000000000000000000000000000000008152600401620000f1906200026f565b60405180910390fd5b8060028190555050506200028f565b5f80fd5b5f73ffffffffffffffffffffffffffffffffffffffff82169050919050565b5f62000138826200010d565b9050919050565b6200014a816200012c565b811462000155575f80fd5b50565b5f8151905062000168816200013f565b92915050565b5f819050919050565b62000182816200016e565b81146200018d575f80fd5b50565b5f81519050620001a08162000177565b92915050565b5f8060408385031215620001bf57620001be62000109565b5b5f620001ce8582860162000158565b9250506020620001e18582860162000190565b9150509250929050565b5f82825260208201905092915050565b7f4465706f73697420616d6f756e74206d757374206265206772656174657220745f8201527f68616e2030000000000000000000000000000000000000000000000000000000602082015250565b5f62000257602583620001eb565b91506200026482620001fb565b604082019050919050565b5f6020820190508181035f830152620002888162000249565b9050919050565b6111c9806200029d5f395ff3fe6080604052600436106100c5575f3560e01c8063adf077911161007e578063c0ae3deb11610058578063c0ae3deb1461024e578063da83ee1314610278578063dc1997ea146102a2578063f3dce5a4146102cc57610105565b8063adf07791146101e6578063b8b4f1a014610210578063be85aa291461022657610105565b8063236347da146101095780633538af8614610133578063419759f51461015d5780635c274b8614610187578063779cd08314610191578063a4e17359146101bb57610105565b36610105576040517f08c379a00000000000000000000000000000000000000000000000000000000081526004016100fc90610ad2565b60405180910390fd5b5f80fd5b348015610114575f80fd5b5061011d6102f6565b60405161012a9190610b0a565b60405180910390f35b34801561013e575f80fd5b50610147610309565b6040516101549190610b3b565b60405180910390f35b348015610168575f80fd5b5061017161030f565b60405161017e9190610b3b565b60405180910390f35b61018f610315565b005b34801561019c575f80fd5b506101a56104a1565b6040516101b29190610b0a565b60405180910390f35b3480156101c6575f80fd5b506101cf6104b4565b6040516101dd929190610b54565b60405180910390f35b3480156101f1575f80fd5b506101fa610511565b6040516102079190610bba565b60405180910390f35b34801561021b575f80fd5b50610224610536565b005b348015610231575f80fd5b5061024c60048036038101906102479190610c01565b61074a565b005b348015610259575f80fd5b50610262610a06565b60405161026f9190610b3b565b60405180910390f35b348015610283575f80fd5b5061028c610a0c565b6040516102999190610b0a565b60405180910390f35b3480156102ad575f80fd5b506102b6610a1e565b6040516102c39190610bba565b60405180910390f35b3480156102d7575f80fd5b506102e0610a41565b6040516102ed9190610b0a565b60405180910390f35b600360029054906101000a900460ff1681565b60055481565b60025481565b60015f9054906101000a900473ffffffffffffffffffffffffffffffffffffffff1673ffffffffffffffffffffffffffffffffffffffff163373ffffffffffffffffffffffffffffffffffffffff16146103a4576040517f08c379a000000000000000000000000000000000000000000000000000000000815260040161039b90610caf565b60405180910390fd5b60035f9054906101000a900460ff16156103f3576040517f08c379a00000000000000000000000000000000000000000000000000000000081526004016103ea90610d17565b60405180910390fd5b6002543414610437576040517f08c379a000000000000000000000000000000000000000000000000000000000815260040161042e90610d7f565b60405180910390fd5b600160035f6101000a81548160ff0219169083151502179055503373ffffffffffffffffffffffffffffffffffffffff167ff1953715a33b9e021c0f2cf12911e8ac25fdb177bf6fc92d1331ae05201fe9f6346040516104979190610b3b565b60405180910390a2565b600360019054906101000a900460ff1681565b5f8060038054906101000a900460ff16610503576040517f08c379a00000000000000000000000000000000000000000000000000000000081526004016104fa90610e0d565b60405180910390fd5b600454915060055490509091565b60015f9054906101000a900473ffffffffffffffffffffffffffffffffffffffff1681565b60015f9054906101000a900473ffffffffffffffffffffffffffffffffffffffff1673ffffffffffffffffffffffffffffffffffffffff163373ffffffffffffffffffffffffffffffffffffffff16146105c5576040517f08c379a00000000000000000000000000000000000000000000000000000000081526004016105bc90610caf565b60405180910390fd5b60038054906101000a900460ff16610612576040517f08c379a000000000000000000000000000000000000000000000000000000000815260040161060990610e9b565b60405180910390fd5b600360029054906101000a900460ff1615610662576040517f08c379a000000000000000000000000000000000000000000000000000000000815260040161065990610f29565b60405180910390fd5b6001600360026101000a81548160ff02191690831515021790555060015f9054906101000a900473ffffffffffffffffffffffffffffffffffffffff1673ffffffffffffffffffffffffffffffffffffffff166108fc60025490811502906040515f60405180830381858888f193505050501580156106e3573d5f803e3d5ffd5b5060015f9054906101000a900473ffffffffffffffffffffffffffffffffffffffff1673ffffffffffffffffffffffffffffffffffffffff167f87749e5a8d50e7a3313d5056b9cc2bd91d8d91b4985106ee8ce6b865e2edfd0860405160405180910390a2565b5f8054906101000a900473ffffffffffffffffffffffffffffffffffffffff1673ffffffffffffffffffffffffffffffffffffffff163373ffffffffffffffffffffffffffffffffffffffff16146107d7576040517f08c379a00000000000000000000000000000000000000000000000000000000081526004016107ce90610fb7565b60405180910390fd5b60035f9054906101000a900460ff16610825576040517f08c379a000000000000000000000000000000000000000000000000000000000815260040161081c9061101f565b60405180910390fd5b600360019054906101000a900460ff1615610875576040517f08c379a000000000000000000000000000000000000000000000000000000000815260040161086c906110ad565b60405180910390fd5b600360029054906101000a900460ff16156108c5576040517f08c379a00000000000000000000000000000000000000000000000000000000081526004016108bc90610f29565b60405180910390fd5b60025481836108d491906110f8565b14610914576040517f08c379a000000000000000000000000000000000000000000000000000000000815260040161090b90611175565b60405180910390fd5b81600481905550806005819055506001600360016101000a81548160ff02191690831515021790555060016003806101000a81548160ff0219169083151502179055505f8054906101000a900473ffffffffffffffffffffffffffffffffffffffff1673ffffffffffffffffffffffffffffffffffffffff1660015f9054906101000a900473ffffffffffffffffffffffffffffffffffffffff1673ffffffffffffffffffffffffffffffffffffffff167fac445a47911583f51f2575b94dff80dbb9df80b342753772d1b2604ea9da06916004546005546040516109fa929190610b54565b60405180910390a35050565b60045481565b60035f9054906101000a900460ff1681565b5f8054906101000a900473ffffffffffffffffffffffffffffffffffffffff1681565b60038054906101000a900460ff1681565b5f82825260208201905092915050565b7f5468697320636f6e747261637420646f6573206e6f74206163636570742045745f8201527f686572206469726563746c790000000000000000000000000000000000000000602082015250565b5f610abc602c83610a52565b9150610ac782610a62565b604082019050919050565b5f6020820190508181035f830152610ae981610ab0565b9050919050565b5f8115159050919050565b610b0481610af0565b82525050565b5f602082019050610b1d5f830184610afb565b92915050565b5f819050919050565b610b3581610b23565b82525050565b5f602082019050610b4e5f830184610b2c565b92915050565b5f604082019050610b675f830185610b2c565b610b746020830184610b2c565b9392505050565b5f73ffffffffffffffffffffffffffffffffffffffff82169050919050565b5f610ba482610b7b565b9050919050565b610bb481610b9a565b82525050565b5f602082019050610bcd5f830184610bab565b92915050565b5f80fd5b610be081610b23565b8114610bea575f80fd5b50565b5f81359050610bfb81610bd7565b92915050565b5f8060408385031215610c1757610c16610bd3565b5b5f610c2485828601610bed565b9250506020610c3585828601610bed565b9150509250929050565b7f4f6e6c792074656e616e742063616e2063616c6c20746869732066756e6374695f8201527f6f6e000000000000000000000000000000000000000000000000000000000000602082015250565b5f610c99602283610a52565b9150610ca482610c3f565b604082019050919050565b5f6020820190508181035f830152610cc681610c8d565b9050919050565b7f4465706f7369742068617320616c7265616479206265656e20706169640000005f82015250565b5f610d01601d83610a52565b9150610d0c82610ccd565b602082019050919050565b5f6020820190508181035f830152610d2e81610cf5565b9050919050565b7f496e636f7272656374206465706f73697420616d6f756e7400000000000000005f82015250565b5f610d69601883610a52565b9150610d7482610d35565b602082019050919050565b5f6020820190508181035f830152610d9681610d5d565b9050919050565b7f4465706f73697420726566756e6420686173206e6f74206265656e207265636f5f8201527f7264656420796574000000000000000000000000000000000000000000000000602082015250565b5f610df7602883610a52565b9150610e0282610d9d565b604082019050919050565b5f6020820190508181035f830152610e2481610deb565b9050919050565b7f43616e6e6f74207369676e20636f6e747261637420756e74696c206c616e646c5f8201527f6f7264207265636f7264656420746865206465706f7369740000000000000000602082015250565b5f610e85603883610a52565b9150610e9082610e2b565b604082019050919050565b5f6020820190508181035f830152610eb281610e79565b9050919050565b7f54656e616e742068617320616c7265616479207369676e65642074686520636f5f8201527f6e74726163740000000000000000000000000000000000000000000000000000602082015250565b5f610f13602683610a52565b9150610f1e82610eb9565b604082019050919050565b5f6020820190508181035f830152610f4081610f07565b9050919050565b7f4f6e6c79206c616e646c6f72642063616e2063616c6c20746869732066756e635f8201527f74696f6e00000000000000000000000000000000000000000000000000000000602082015250565b5f610fa1602483610a52565b9150610fac82610f47565b604082019050919050565b5f6020820190508181035f830152610fce81610f95565b9050919050565b7f4465706f73697420686173206e6f74206265656e2070616964207965740000005f82015250565b5f611009601d83610a52565b915061101482610fd5565b602082019050919050565b5f6020820190508181035f83015261103681610ffd565b9050919050565b7f4465706f7369742068617320616c7265616479206265656e20726566756e64655f8201527f6400000000000000000000000000000000000000000000000000000000000000602082015250565b5f611097602183610a52565b91506110a28261103d565b604082019050919050565b5f6020820190508181035f8301526110c48161108b565b9050919050565b7f4e487b71000000000000000000000000000000000000000000000000000000005f52601160045260245ffd5b5f61110282610b23565b915061110d83610b23565b9250828201905080821115611125576111246110cb565b5b92915050565b7f496e76616c69642073706c697420616d6f756e747300000000000000000000005f82015250565b5f61115f601583610a52565b915061116a8261112b565b602082019050919050565b5f6020820190508181035f83015261118c81611153565b905091905056fea26469706673582212201baa2450d4b014f98b9e6d1948457de399630c8e3ebfed718903f918482967e464736f6c63430008180033",
  "immutableReferences": {},
  "source": "// SPDX-License-Identifier: MIT\npragma solidity >=0.4.22 <0.9.0;\n\ncontract RentalDeposit {\n    address public landlord;\n    address public tenant;\n    uint256 public depositAmount;\n    bool public isDepositPaid;\n    bool public isRefunded;\n    bool public isSignedByTenant;\n    bool public isRefundRecorded;\n    uint256 public tenantShare;\n    uint256 public landlordShare;\n\n    event DepositPaid(address indexed payer, uint256 amount);\n    event DepositRefunded(address indexed tenant, address indexed landlord, uint256 tenantShare, uint256 landlordShare);\n    event ContractSigned(address indexed tenant);\n\n    modifier onlyLandlord() {\n        require(msg.sender == landlord, \"Only landlord can call this function\");\n        _;\n    }\n\n    modifier onlyTenant() {\n        require(msg.sender == tenant, \"Only tenant can call this function\");\n        _;\n    }\n\n    modifier depositNotPaid() {\n        require(!isDepositPaid, \"Deposit has already been paid\");\n        _;\n    }\n\n    modifier depositPaid() {\n        require(isDepositPaid, \"Deposit has not been paid yet\");\n        _;\n    }\n\n    modifier notRefunded() {\n        require(!isRefunded, \"Deposit has already been refunded\");\n        _;\n    }\n\n    modifier tenantHasNotSigned() {\n        require(!isSignedByTenant, \"Tenant has already signed the contract\");\n        _;\n    }\n\n    modifier canSignContract() {\n        require(isRefundRecorded, \"Cannot sign contract until landlord recorded the deposit\");\n        _;\n    }\n\n    constructor(address _tenant, uint256 _depositAmount) {\n        landlord = msg.sender;\n        tenant = _tenant;\n        require(_depositAmount > 0, \"Deposit amount must be greater than 0\");\n        depositAmount = _depositAmount;\n    }\n\n    modifier correctDepositAmount() {\n        require(msg.value == depositAmount, \"Incorrect deposit amount\");\n        _;\n    }\n\n    function payDeposit() external payable onlyTenant depositNotPaid correctDepositAmount {\n        isDepositPaid = true;\n        emit DepositPaid(msg.sender, msg.value);\n    }\n\n    function refundDeposit(uint256 _tenantShare, uint256 _landlordShare) external onlyLandlord depositPaid notRefunded tenantHasNotSigned {\n        require(_tenantShare + _landlordShare == depositAmount, \"Invalid split amounts\");\n\n        // Perform property inspection logic here, if needed\n\n        tenantShare = _tenantShare;\n        landlordShare = _landlordShare;\n        isRefunded = true;\n        isRefundRecorded = true;\n\n        emit DepositRefunded(tenant, landlord, tenantShare, landlordShare);\n    }\n\n    function signContract() external onlyTenant canSignContract tenantHasNotSigned {\n        isSignedByTenant = true;\n\n        // Transfer split amount to the tenant when the tenant signs the contract\n        payable(tenant).transfer(depositAmount);\n\n        emit ContractSigned(tenant);\n    }\n\n    function getDepositShares() external view returns (uint256 _tenantShare, uint256 _landlordShare) {\n        require(isRefundRecorded, \"Deposit refund has not been recorded yet\");\n\n        _tenantShare = tenantShare;\n        _landlordShare = landlordShare;\n    }\n\n    // Fallback function to reject incoming Ether\n    receive() external payable {\n        revert(\"This contract does not accept Ether directly\");\n    }\n}",
  "sourcePath": "C:\\Users\\fabia\\Proton Drive\\fabian.stauffer\\My files\\CAS Blockchain\\RentalDeposit\\dApp\\contracts\\RentalDeposit.sol",
  "compiler": {
    "name": "solc",
    "version": "0.8.24+commit.e11b9ed9.Emscripten.clang"
  },
  "schemaVersion": "3.4.16",
  "updatedAt": "2024-06-29T09:16:56.410Z",
  "devdoc": {
    "kind": "dev",
    "methods": {},
    "version": 1
  },
  "userdoc": {
    "kind": "user",
    "methods": {},
    "version": 1
  }
}